:020000040800F2
:100000007807002089010008AB1500089913000843
:10001000A915000887030008111900080000000056
:10002000000000000000000000000000AF15000804
:100030008903000800000000AD150008B115000894
:10004000A3010008A3010008A3010008A301000800
:10005000A3010008A3010008A3010008A3010008F0
:10006000A3010008A3010008A3010008A3010008E0
:10007000A3010008A3010008A3010008A3010008D0
:10008000A3010008A3010008A3010008A3010008C0
:10009000A3010008A3010008A3010008A3010008B0
:1000A000A3010008A3010008A3010008A3010008A0
:1000B000A3010008A3010008A3010008A301000890
:1000C000A3010008A3010008A3010008A301000880
:1000D000A3010008A3010008A3010008A301000870
:1000E000A3010008A3010008A301000800F002F822
:1000F00000F03AF80AA090E8000C82448344AAF188
:100100000107DA4501D100F02FF8AFF2090EBAE885
:100110000F0013F0010F18BFFB1A43F0010318473B
:100120008C180000AC180000103A24BF78C878C1C1
:10013000FAD8520724BF30C830C144BF04680C60ED
:10014000704700000023002400250026103A28BF35
:1001500078C1FBD8520728BF30C148BF0B60704739
:100160001FB51FBD10B510BD00F090F81146FFF788
:10017000F7FF01F0E8FB00F0AEF803B4FFF7F2FF81
:1001800003BC00F057F800000948804709480047C1
:10019000FEE7FEE7FEE7FEE7FEE7FEE7FEE7FEE737
:1001A000FEE7FEE704480549054A064B7047000094
:1001B0002D160008ED0000087801002078070020C7
:1001C000780300207803002010B5002000F038F8F4
:1001D000FFF7C8FFBDE81040012000F02BB84FF03A
:1001E000000200B5134694469646203922BFA0E887
:1001F0000C50A0E80C50B1F12001BFF4F7AF090793
:1002000028BFA0E80C5048BF0CC05DF804EB890083
:1002100028BF40F8042B08BF704748BF20F8022BC6
:1002200011F0804F18BF00F8012B704770477047DE
:100230007047000001491820ABBEFEE7260002000F
:1002400010B500F00BF8BDE8104000F001B87047A1
:10025000002801D0FFF7EEBF7047000010B5002165
:1002600002A000F041F8012010BD000053494741B1
:100270004252543A2041626E6F726D616C20746517
:10028000726D696E6174696F6E000000754600F0F2
:100290004BF8AE4605006946534620F007008546F8
:1002A00018B020B5FFF77EFFBDE820404FF00006F4
:1002B0004FF000074FF000084FF0000B21F007014E
:1002C000AC46ACE8C009ACE8C009ACE8C009ACE891
:1002D000C0098D46704710B50446AFF30080204634
:1002E000BDE81040FFF749BF70B505460C460A202F
:1002F00000E06D1C00F011F835B128780028F8D125
:1003000002E0641C00F009F814B120780028F8D14C
:10031000BDE870400A20AFF3008008B569468DF84B
:1003200000000320ABBE08BD004870471801002044
:1003300070B5044600688168C943C90717D1816850
:1003400021F00101816000F051FA05460AE000BF8A
:1003500000F04CFA401B022804D920688068C04392
:10036000C00706D020688068C043C007F0D00020D6
:1003700070BDA06A40F01000A062E06A40F0010089
:10038000E062012070BDFEE7704772B6FEE7000034
:10039000F8B50024009490F824202546012A12D0B4
:1003A000012280F824204A681F23072A0DD20668FC
:1003B000776B521E02EB820293409F430B6893407F
:1003C0001F43776319E00220F8BD06680D2A0AD2A0
:1003D000376BD21F02EB820293409F430B6893401E
:1003E0001F43376309E0F76A0D3A02EB820293403C
:1003F0009F430B6893401F43F7620A680723066810
:100400000A2A0AD3F7680A3A02EB420293409F4352
:100410008B6893401F43F76008E0376902EB4202A4
:1004200093409F438B6893401F4337610A68102AAB
:1004300001D0112A20D1124B02689A4217D1936839
:100440001B0219D4936843F40003936009681029D0
:1004500012D10C490C4A0968B1FBF2F101EB8101A0
:10046000490000E0491E00910029FBD104E0816AA7
:1004700041F020018162012480F824502046F8BD1B
:10048000002401400C00002040420F002DE9F04103
:100490004FF0000704003D467ED0A06A002628B930
:1004A000E66284F82460204600F07EF82046FFF7DC
:1004B0003FFFA16AC90600D420B1A06A40F0100035
:1004C000A06269E0A16A21F4885141F00201A162B1
:1004D0006268E169237B0A4347EA43010A43A16852
:1004E0004FF48077B94209D0012907D05FF00001AD
:1004F00094F814C0BCF1010F02D00AE03946F7E7C6
:10050000F3B1A36A43F02003A362E36A43F001035B
:10051000E3622368D3F804C02CF4694C4CEA010C64
:10052000C3F804C021688B68DFF870C003EA0C03CD
:1005300013438B60A168B9420BD0012909D00CE0AC
:10054000DFF85CC0A3690CEB43330B4343F4006159
:10055000DFE7218A0D05A5F580152168CB6A23F414
:1005600070032B43CB62216889680E4B194091427E
:1005700008D1E662A16A21F0020141F00101A16205
:10058000BDE8F081A06A20F0020040F01000A062F7
:10059000E06A40F00100E0620120F1E7FDF7E1FFD1
:1005A00000E0FFFFFE0E1FFF00B585B000210091A7
:1005B00001910291039100680E49884217D10E48BB
:1005C000816941F400718161816901F400710491D4
:1005D000816941F0040181618069694600F004008D
:1005E0000490032000900190044800F009F805B041
:1005F00000BD00000024014000100240000801403E
:100600002DE9F84FDFF8B8910024A9F1040B234637
:100610000F2709F1040AABF1040EC9E00125A5403A
:100620002A40AA427DD1674ED1F804C0ACEB06083F
:10063000B44532D014DCBCF1030F3AD009DCBCF174
:10064000000F2AD0BCF1010F1CD0BCF1020F31D138
:100650001DE0BCF1110F17D0BCF1120F2AD119E027
:10066000B8F5881F19D006DCB8F5803F15D0B8F56D
:10067000801F1FD111E0B8F5001F0ED0B8F5041F80
:1006800018D10AE0CB6815E0CB681B1D12E0CB68DF
:1006900008330FE0CB680C330CE08B682BB1012BD7
:1006A0004FF0080303D0456104E0042302E0056134
:1006B00000E00023FF2A01D8064601E000F104060D
:1006C0004FEA840501D9A5F12005D6F8008007FA84
:1006D00005FC28EA0C0803FA05F548EA0508C6F8FF
:1006E00000804D68ED0062D5374DAE6946F00106D9
:1006F000AE61AD6924F0030605F001050095334DA8
:1007000006EB050CDCF80850A607360F07FA06F8CA
:1007100025EA0805DFF8B880404503D14FF000080E
:1007200017E044E0DFF8AC80404502D14FF001080B
:100730000FE0DFF8A480404502D14FF0020808E046
:10074000DFF89880404502D14FF0030801E04FF0F8
:10075000040808FA06F848EA0508CCF808804D684D
:10076000D9F80060ED024D4601D5164300E09643EE
:100770002E604D68DAF80060AD02554601D516438B
:1007800000E096432E604D68DBF80060AD035D46E7
:1007900001D5164300E096432E604D68DEF80060F8
:1007A000ED03754601D5164300E096432E60641CA8
:1007B0000D682A46E5407FF431AFBDE8F88F0000B0
:1007C0000804014000001110001002400000014028
:1007D00000080140000C01400010014000140140DD
:1007E0000AB1016170470904FBE700000148806815
:1007F0007047000000000020024881680278114420
:100800008160704700000020074810B5016841F082
:1008100010010160032000F067F80F2000F006F8D7
:1008200000F024F8002010BD0020024070B50D4DEE
:1008300004464FF47A712878B1FBF0F00A49096850
:10084000B1FBF0F000F044FB48B9102C07D20022B5
:100850002146501E00F028F800206C6070BD012079
:1008600070BD0000000000200C0000200C4808B5FE
:10087000816941F001018161816901F0010100910B
:10088000C16941F08051C161C06900F080500090A1
:100890000448416821F0E06141F00071416008BD09
:1008A0000010024000000140F0B40E4B1B680C46E3
:1008B000C3F30223C3F10705042D00D90425191D34
:1008C000072901D2002300E0DB1E012606FA05F10C
:1008D000491E214099409E40761E16403143F0BC8F
:1008E00001F017B80CED00E0064900F007020868B7
:1008F0004FF6FF03184040EA0220034A1043086005
:10090000704700000CED00E00000FA052DE9F84307
:1009100005460078354CC00754D0E0690026C00079
:1009200008D4E06940F08050E061E069012600F001
:10093000805000902E480168C90512D40168804695
:1009400041F480710160FFF751FF074605E000BFE9
:10095000FFF74CFFC01B642823D8D8F80000C0055F
:10096000F6D5206A10F4407021D0A98801F44071B6
:1009700081421CD0206A1F49012220F440700A6085
:1009800000220A602062C00711D0FFF72FFF074640
:1009900041F2883808E000BFFFF728FFC11B41453E
:1009A00002D90320BDE8F883206A8007F4D5206AC5
:1009B000696820F44070084320621EB1E06920F0AD
:1009C0008050E0612878800705D56068A96820F428
:1009D0004040084360602878C00605D56068E96833
:1009E00020F48000084360600020DBE70010024034
:1009F00000700040400442422DE9F0470F460500D8
:100A000061D0434E306800F00700B84209D2306828
:100A100020F0070038433060306800F00700B8422B
:100A200051D128683B4C810712D5400703D5606837
:100A300040F4E06060602878000703D5606840F407
:100A4000605060606068A96820F0F0000843606052
:100A50002878C00728D06868012810D021680228AB
:100A600010D0890700292EDA616821F003010143C3
:100A70006160FFF7BBFE804641F288390DE02168D6
:100A80008903EFE78901EDE7FFF7B0FEA0EB08016E
:100A9000494502D90320BDE8F0876068696800F025
:100AA0000C00B0EB810FEFD1306800F00700B842C6
:100AB0000BD9306820F0070038433060306800F010
:100AC0000700B84201D00120E5E72878400705D5A6
:100AD0006068E96820F4E0600843606028780007F7
:100AE00006D56068296920F4605040EAC100606062
:100AF00000F038F86168084AC1F30311515CC8403E
:100B00000649086006480068FFF790FE0020C2E72B
:100B10000020024000100240921900080C00002042
:100B2000040000200448054900684968044AC1F3EC
:100B30000221515CC84070470C00002000100240A8
:100B4000A21900080448054900684968044AC1F32D
:100B5000C221515CC84070470C00002000100240C8
:100B6000A21900080E4A51680E4801F00C03042B2C
:100B700011D0082B0FD10C48C1F38343C903C05CCB
:100B80000AD55168084AC1F34041921E515C054A9A
:100B90005043B0FBF1F070470449484370470000F0
:100BA0000010024000127A008219000800093D007E
:100BB0002DE9F84F040070D02078C04DC00749D00F
:100BC0006868C0F38100012807D06868C0F381001D
:100BD000022809D16868C00306D52868800339D582
:100BE00060680028E7D035E06068B0F5803F0BD042
:100BF00010B1B0F5A02F11D0286820F48030286003
:100C0000286820F4802002E0286840F480302860C2
:100C1000606890B1FFF7EAFD06460AE0286840F4F4
:100C200080202860F0E700BFFFF7E0FD801B64280C
:100C300073D828688003F7D50CE0FFF7D7FD064688
:100C400005E000BFFFF7D2FD801B6428F0D82868BC
:100C50008003F7D420789A4E80074FF001094FF0B7
:100C6000000839D5686810F00C0F07D06868C0F329
:100C70008100022809D16868C00306D4286880076B
:100C800014D52069012808D110E02069B0B1C6F858
:100C90000090FFF7ABFD074605E00AE1FFF7A6FD70
:100CA000C01B0228C4D828688007F7D52868616966
:100CB00020F0F80040EAC10028600DE0C6F800808E
:100CC000FFF794FD074604E0FFF790FDC01B0228E4
:100CD00023D828688007F7D4207800072CD57948D6
:100CE000A169D9B1C0F80090FFF780FD074604E084
:100CF000FFF77CFDC01B02280FD8686A8007F7D574
:100D000071484FF4FA510068B0FBF1F0009000BF59
:100D10000098411E0091FAD20EE080E0C0F80080F9
:100D2000FFF764FD074604E0FFF760FDC01B0228E3
:100D300075D8686A8007F7D42078400760D5E869DD
:100D40000027C00008D4E86940F08050E861E869F5
:100D5000012700F0805000905C480168C90513D459
:100D60000168834641F480710160FFF73FFD8246D0
:100D700006E000BFFFF73AFDA0EB0A0064284ED85A
:100D8000DBF80000C005F5D5E06801280AD008B1FD
:100D9000052813D0286A20F001002862286A20F074
:100DA000040002E0286A40F001002862E06841F295
:100DB000883B98B1FFF71AFD82460BE0286A40F0A5
:100DC00004002862EEE700BFFFF710FDA0EB0A0168
:100DD00059455AD8286A8007F6D50CE0FFF706FD7A
:100DE000824605E0FFF702FDA0EB0A0159454CD809
:100DF000286A8007F6D41FB1E86920F08050E861C6
:100E0000E06988B36968C1F38101022944D00228EE
:100E1000C6F8608004D0FFF7E9FC044638E034E00F
:100E2000FFF7E4FC074604E0FFF7E0FCC01B0228E4
:100E30002BD828688001F7D4206AB0F5803F05D10F
:100E40006868A16820F4003008436860D4E90801AC
:100E50000843696821F4741108436860C6F860901B
:100E6000FFF7C4FC044606E025E000BFFFF7BEFC28
:100E7000001B022809D828688001F7D51BE000BFB5
:100E8000FFF7B4FC001B022802D90320BDE8F88F4D
:100E900028688001F4D40EE00128F7D06868226A3F
:100EA00000F48031914204D1616A00F470108842EC
:100EB00001D00120EAE70020E8E70000001002402E
:100EC00000004242800442420C00002000700040BA
:100ED00010B5401EB0F1807F01D3012010BD4FF04E
:100EE000E02460610F21601700F013FD0020A06175
:100EF00007202061002010BD10B590F83C20012A89
:100F000022D0012280F83C20CA688C6822F440720A
:100F100022434C6822F4806222430C6822F400626F
:100F200022430C6922F4805222434C6922F400527D
:100F30002243C969002322F480420A4301684A64BB
:100F400080F83C30002010BD022010BD70B590F834
:100F50003C20012A26D0012480F83C40022280F85F
:100F60003D2003685A689D6822F070060A68324383
:100F70005A600D4B02689A4208D0B2F1804F05D0FA
:100F80000A4B9A4202D00A4B9A4204D1496825F092
:100F900080031943916080F83D40002180F83C10A7
:100FA000084670BD022070BD002C014000040040C6
:100FB0000008004010B5040003D094F83D0010B1C3
:100FC00007E0012010BD002084F83C00204600F01E
:100FD0001FF8022084F83D00211D206800F028FB46
:100FE000012084F8460084F83E0084F83F0084F82D
:100FF000400084F8410084F8420084F8430084F8FB
:10100000440084F8450084F83D00002010BD000035
:1010100008B500680649884208D10648816941F44C
:1010200000618161806900F40060009008BD0000EB
:10103000002C01400010024070B5044690F83C00BE
:101040000025012817D0012684F83C60022084F88E
:101050003D002068826822F0770222F47F4282609D
:101060000868502838D00DDC20284FD005DC90B31C
:10107000102811D14AE0022070BD302846D0402807
:101080000AD13BE060282FD070280DD0B0F5805FEA
:1010900003D0B0F5005F12D0012584F83D60002038
:1010A00084F83C00284670BDCB68D1E90121206856
:1010B00000F0FAFA2068816841F0770109E0CB6816
:1010C000D1E90121206800F0EFFA2068816841F43D
:1010D00080418160E1E719E0CA684968206800F052
:1010E00097FB5021206806E0CA684968206800F034
:1010F000A0FB6021206800F0E1FACEE7CA684968E9
:10110000206800F085FB40212068F4E72268014652
:101110001046F0E700B585B00021009101910291E1
:10112000039100680B49884212D10B48816941F054
:10113000040181618069694600F0040004904FF465
:10114000807000900220019003900448FFF758FA45
:1011500005B000BD002C0140001002400008014015
:1011600070B5044690F83C0000260D4601280FD0CB
:10117000012084F83C006AB1042A1DD0082A2FD02F
:101180000C2A3FD00126002084F83C00304670BD78
:10119000022070BD206800F099FA2068816941F052
:1011A000080181612068816921F004018161206862
:1011B00081692A69114311E0206800F0AFFA2068C4
:1011C000816941F4006181612068816921F4806155
:1011D0008161206881692A6941EA02218161D2E73F
:1011E000206800F0C7FA2068C16941F00801C161B8
:1011F0002068C16921F00401C1612068C1692A69C0
:10120000114311E0206800F0E1FA2068C16941F45F
:101210000061C1612068C16921F48061C1612068F9
:10122000C1692A6941EA0221C161ACE710B5040035
:1012300003D094F83D0010B107E0012010BD00205C
:1012400084F83C00204600F01EF8022084F83D009F
:10125000211D206800F0ECF9012084F8460084F894
:101260003E0084F83F0084F8400084F8410084F890
:10127000420084F8430084F8440084F8450084F870
:101280003D00002010BD704770B5040004D094F8F4
:101290004100002510B106E0012070BD84F84050E7
:1012A000204600F023F8242084F841002068C1681B
:1012B00021F40051C160204600F0CEFA2068016997
:1012C00021F4904101612068416921F02A014161C6
:1012D0002068C16841F40051C1606564202084F831
:1012E000410084F842006563002070BD70B586B08F
:1012F00000240094019402940394234E036823492C
:1013000002200322224DB34219D18B6943F480435A
:101310008B618B6903F4804304938B6943F004036E
:101320008B618969039201F0040104910102CDE906
:10133000001069462846FFF763F928151BE0154E93
:10134000B3421FD1CB6943F40033CB61CB6903F4C3
:10135000003304938B6943F004038B618969039222
:1013600001F0040104910421CDE9001069462846EA
:10137000FFF746F90820CDE90004694628460294A3
:10138000FFF73EF906B070BD003801400010024082
:101390000008014000440040FEE700003EB5002484
:1013A00016480094019414490294016089158160E3
:1013B00004730475022505614FF460214460C16126
:1013C000FFF764F808B1FEF7E0FF0094012407205E
:1013D000CDE9014069460948FEF7DAFF08B1FEF79A
:1013E000D4FF69460548CDE90045FEF7D1FF002846
:1013F00001D0FEF7CAFF3EBD0024014010000020CE
:1014000070B586B0002418480094019402940394A7
:10141000816941F020018161816901F0200104911D
:10142000816941F004018161816901F00401049145
:10143000816941F00801816180690C4E00F008006B
:101440004FF400450490002229463046FFF7C8F9C2
:1014500001200095CDE90104022003906946304641
:10146000FFF7CEF806B070BD00100240000C01403E
:1014700010B596B000240F94109411941294139404
:101480001C2108A81494FEF7AAFE20216846FEF746
:10149000A6FE28482649C0E900144FF6FF71C0E9AE
:1014A0000241046144618461FFF784FD08B1FEF7E5
:1014B0006CFF4FF480500F900FA91E48FFF7BCFD42
:1014C00008B1FEF762FF1B48FFF7B0FE08B1FEF758
:1014D0005CFF139413A917481494FFF737FD08B164
:1014E000FEF753FF6020CDE908040A940B940C9496
:1014F0000D94002208A90F480E94FFF731FE08B1A1
:10150000FEF743FF00944FF40050CDE904400294ED
:1015100001940394694607480794FFF7EDFC08B16E
:10152000FEF733FF0348FFF7F5FD16B010BD0000CE
:10153000002C0140400000200C4810B50A49016011
:101540004FF4E1314160002181600C22C160C0E9AB
:1015500004128161C161FFF797FE002803D0BDE846
:101560001040FEF712BF10BD003801408800002077
:101570000C4810B50A4901604FF4E1314160002187
:1015800081600C22C160C0E904128161C161FFF772
:101590007BFE002803D0BDE81040FEF7F6BE10BD6C
:1015A00000440040D0000020FEE7FEE7704770478F
:1015B000FFF722B930B593B028216846FEF70FFE39
:1015C00014210AA8FEF70BFE002501200F951095A7
:1015D0001195010412958DE8230004904FF4E0105A
:1015E000CDE90810022407946846FFF7E1FA08B134
:1015F00072B6FEE70AA90F2081E831004FF480603F
:10160000CDE90D0502210AA8FFF7F6F908B172B677
:10161000FEE74FF4004011900F940FA8FFF776F902
:10162000002801D072B6FEE713B030BD704700004D
:10163000F0B50268194B1A4C1A4D4FF0804798428A
:1016400005D0B84203D0A04201D0A84203D122F075
:1016500070064A683243984205D0B84203D0A0428F
:1016600001D0A84203D122F44074CA6822434C69D5
:1016700022F08002224302608A68C2620A688262A3
:10168000984201D109690163012141610169C907DA
:1016900003D0016921F001010161F0BD002C01407E
:1016A000000400400008004010B5846842EA0322AC
:1016B00024F47F440A432243826010BD826822F0F2
:1016C00070020A4342F007018160704730B5036A37
:1016D000026A22F0010202624268846924F0730502
:1016E0000C682C4323F002058B682B430A4DA8425B
:1016F0000BD123F00805CB6822F440722B434D69CF
:1017000023F0040315438A692A43426084614968CF
:101710004163036230BD0000002C014030B5026A15
:10172000036A23F010030362436884690D6824F49C
:10173000E64444EA05248D6822F0200242EA0512BC
:101740000B4DA8420ED1CD6822F0800242EA05126C
:101750004D6923F4406343EA85038D6922F040021A
:1017600043EA85034360846149688163026230BD56
:10177000002C014030B5036A026A22F480720262D2
:101780004268C46923F4007324F073050C682C4389
:101790008D6843EA05230C4DA8420ED1CD6823F491
:1017A000006343EA05234D6922F4405242EA0512E0
:1017B0008D6923F4806342EA05124260C46149687E
:1017C000C163036230BD0000002C014030B5046AE3
:1017D000026A22F4805202624268C3690D6823F4EF
:1017E000E64343EA05238D6824F4005444EA0534B3
:1017F000064DA84204D14D6922F4804242EA851286
:101800004260C36149680164046230BD002C01403C
:1018100010B5036A046A24F001040462846924F0A8
:10182000F00444EA021423F00A020A4384610262CB
:1018300010BD10B5036A046A24F0100404628469C0
:1018400023F0A00324F4704444EA023243EA011175
:101850008261016210BD000070B504460068016934
:10186000E26821F44051114301612169A0680843F5
:10187000616908432168CA6841F20C639A430243D4
:10188000CA6020684169A26921F440711143416135
:101890001E492068884202D1FFF754F901E0FFF7A2
:1018A00041F900EBC00101EB001260686421800087
:1018B000B2FBF0F3B3FBF1F36FF018067343B2FB26
:1018C000F0F5B2FBF0F605EB8305322303EB0515CB
:1018D000B5FBF1F5B6FBF1F605F0F00505EB0615E5
:1018E000B2FBF0F6B2FBF0F0B0FBF1F06FF01802D3
:1018F000504306EB800003EB0010B0FBF1F02168D1
:1019000000F00F002844886070BD000000380140DE
:10191000FEE70907090E002804DB00F1E02080F84B
:101920000014704700F00F0000F1E02080F8141D53
:10193000704700B589B01022694604A800F014F879
:1019400009B0002000BDFEF75FFFFFF733FEFFF791
:1019500057FDFFF723FDFFF78BFDFFF7EDFDFFF7C9
:1019600007FEFFF7E6FFFEE710B5531E1A4201D04F
:10197000FEF72AFCC0E9001300218160C16010BDA0
:10198000010202030405060708090A0B0C0D0E0FDD
:101990001010000000000000000001020304060710
:1019A000080900000000010203040000CC1900082F
:1019B000000000201000000028010008DC190008C9
:1019C000100000206807000044010008010000002A
:0C19D000100000000000000000127A006F
:04000005080000ED02
:00000001FF
